:08000000803102288731F42F42
:100D1E00F9007908220099000800A03022009800FE
:100D2E00990108007830210099009A019801080075
:100D3E002400940120309500920108000B1027002A
:100D4E0099138B15803097000800F9002400951335
:100D5E0079089100141CB12E1108080086319926CD
:100D6E0086318631C4268631863194268631863187
:100D7E00A526863186319F26080022008C01083078
:100D8E0021008C00013023008C0022008D012100F7
:100D9E008D0123008D0124008D0122008E01FF3074
:100DAE0021008E0023008E0124008E012100951754
:100DBE0011303D009E000F303C00A00010303D0071
:100DCE009F000800FB003D009E0122000D170D1331
:100DDE0011303D009E004C308400893085000008A3
:100DEE008631AC2686317B08003E8400883003189D
:100DFE00013E850000088631AC2686317B08823E96
:100E0E00840088300318013E850000088631AC2628
:100E1E0086313D009E0122000D170D1311303D004D
:100E2E009E004D3084008930850000088631AC2646
:100E3E0086317A08003E840088300318013E850012
:100E4E0000088631AC2686317A08823E84008830CE
:100E5E000318013E850000088631AC260800780391
:100E6E000319432F8631B526873122000C110D123E
:100E7E008C100C128C128D12F801F80A2700991B97
:100E8E004A2F63004B2F9913C03020000E05FC0033
:100E9E00C0307C06031D4B2F0E08FC007C08F000B2
:100EAE00C0300E05FC0080307C06031D572F0E0847
:100EBE003F39FC007C08F200C0300E05FC004030CB
:100ECE007C06031D632F0E083F39FC007C08F300DF
:100EDE008E1F6F2F0E087F39FC007C08F4008E1BCE
:100EEE00762F0E087F39FC007C08F5007308FC0095
:100EFE000330FC35FF3E031D802F7C35C039FD00CD
:100F0E007D08F60076087204FC007C08F600760870
:100F1E0086318F268731F31C972F22000C15992FBF
:100F2E0022000C11731C9D2F0D169E2F0D1275088D
:100F3E00FC007C08FA0074088631E9268731B52F4B
:100F4E0022008C10AC2F22008C140C12DB2F2200EE
:100F5E008C10B32F22008C140C16DB2F700838392E
:100F6E00FC00FD017D08003A0319BE2FDB2F7C0823
:100F7E00083A0319A72F183A0319AA2F083A03198A
:100F8E00AE2F383A0319B12FDB2FDB2F22008C1234
:100F9E00D22F22008C168D12F22F22008C12D92FF6
:100FAE0022008C168D16F22F70080739FC00FD01F9
:100FBE007D08003A0319E42FF22F7C08013A031939
:100FCE00CD2F033A0319D02F013A0319D42F073A24
:100FDE000319D72FF22F63004B2FF001F101F2010D
:100FEE00F301F401F501F601F701F8012000873154
:100FFE00362F18341834183418341834183418346A
:10100E001834183418341834183418341834183472
:10101E001834183418341834183418341834183462
:10102E001834183418341834183418341834183452
:10103E00183419341934193419341934193419343B
:10104E00193419341934193419341934193419342A
:10105E00193419341934193419341934193419341A
:10106E00193419341934193419341934193419340A
:10107E0019341A34003480344034C0342034A0344F
:10108E006034E034103490345034D0343034B034D2
:10109E007034F034083488344834C8342834A834D2
:1010AE006834E834183498345834D8343834B83472
:1010BE007834F834043484344434C4342434A434BA
:1010CE006434E434143494345434D4343434B43472
:1010DE007434F4340C348C344C34CC342C34AC3472
:1010EE006C34EC341C349C345C34DC343C34BC3412
:1010FE007C34FC3406340434083410341C3420346C
:10110E002C343434383440344C34543458346434FD
:10111E00683470347C3480348C3494349834A434F1
:10112E00A834B034BC34C434C834D034DC34E034E5
:10113E00EC34F434F83400340C34143418342434CD
:10114E00283430343C344434483450345C346034C5
:10115E006C34743478348434883490349C34A034B1
:10116E00AC34B434B834C034CC34D434D834E4349D
:10117E00E834F034FC3404340134003400340134E7
:10118E0000340134013400340034013401340034AD
:10119E00013400340034013400340134013400349D
:1011AE00013400340034013401340034003401348D
:1011BE00003401340134003400340134013400347D
:1011CE00013400340034013401340034003401346D
:1011DE00003401340134003401340034003401345D
:1011EE00003401340134003400340134013400344D
:1011FE00013400340034013401340034003400343E
:10120E00003400340134003400340134003400342E
:10121E00003401340134003400340034003400341E
:10122E00003401340034003400340034003401340E
:10123E0000340034013400340034003400340034FF
:10124E0000340034003400340034003400340034F0
:10125E0000340034003400340034003400340034E0
:10126E0000340034003400340034003400340034D0
:10127E00003400340034003400342B3448345634F7
:0E128E0064340734103406340E34643474347F
:020000040001F9
:06000E009C39FB3F9F3FFF
:00000001FF
