:08000000803102288731F52F41
:100CB800F0007008220099000800A0302200980077
:100CC800990108007830210099009A0198010800DC
:100CD8008B170B178B15803027009700080086317B
:100CE8006626863186317F268631863161268631B1
:100CF80086316C26080022008C01083021008C0007
:100D0800013023008C0022008D0121008D01230079
:100D18008D0124008D0122008E01FF3021008E00FC
:100D280023008E0124008E01210095170800F4008D
:100D3800F301710873020318080022008D17741C50
:100D4800A82E22008D16AA2E22008D12701CAF2EFE
:100D580022000D17B12E22000D138D137436F200E8
:100D68007208F4007036F2007208F0000130F200E8
:100D78007208F3079D2EF2017B083839F0007008DD
:100D8800FD007D080319DC2E20307D06031DCE2EC4
:100D9800F217DC2E10307D06031DD42E7217DC2EC0
:100DA80030307D06031DDC2EC030F0007008F204E0
:100DB8007B080739F0007008FD007D080319F82E3C
:100DC80004307D06031DEA2EF216F82E02307D0649
:100DD800031DF02E7216F82E06307D06031DF82E20
:100DE8003030F0007008F20422000C128C1600005B
:100DF80022008C12F1010830710203181A2F721C9C
:100E0800082F22000C160A2F22000C128C16000044
:100E180022008C127236F0007008F2000130F000E7
:100E28007008F10708307102031C032F0C128C168E
:100E3800000022008C120800F80022008D160D1701
:100E48008D120D13C8308400883085000008F60024
:100E58007608F0000430F7007708F100C830840005
:100E680088308500000886319B2687318230F6005D
:100E78007608F0000830F7007708F10082308631F4
:100E88009B268731F001F00AF101F10A0130863121
:100E98009B2687317508003E840088300318013E80
:100EA80085000008F6007608F0000830F70077089B
:100EB800F1007808003E840088300318013E850060
:100EC800000886319B2687317508413E84008830AA
:100ED8000318013E85000008F6007608F00002308D
:100EE800F7007708F1007808413E8400883003183D
:100EF800013E8500000886319B2608000B18912FBB
:100F0800863173268731003086315C26873122008E
:100F18008C100C128C120C110D12C03020000E0512
:100F2800F900C0307906031D912F0E08F9007908E1
:100F3800FB00C0300E05F90080307906031D9D2F97
:100F48000E083F39F9007908A100C0300E05F900F4
:100F580040307906031DA92F0E083F39F90079089A
:100F6800FC008E1FB52F0E087F39F9007908A20002
:100F78008E1BBC2F0E087F39F9007908A3007C0866
:100F8800F9000330F935FF3E031DC62F7935C03906
:100F9800FA007A08A40024082104F9007908A400BA
:100FA800240886315C268731FC1CDD2F22000C15B5
:100FB800DF2F22000C117C1CE32F0D16E42F0D12DD
:100FC80020002308F9007908F50022088731202736
:100FD800873122008C148631BF26873122008C107D
:100FE800912FFB01FC01FD01A001A101A201A301B8
:100FF800A40120008731822F003480344034C0346B
:101008002034A0346034E034103490345034D03478
:101018003034B0347034F034083488344834C83448
:101028002834A8346834E834183498345834D83418
:101038003834B8347834F834043484344434C43418
:101048002434A4346434E434143494345434D43418
:101058003434B4347434F4340C348C344C34CC34E8
:101068002C34AC346C34EC341C349C345C34DC34B8
:101078003C34BC347C34FC34063401340034003451
:1010880001340034013401340034003401340134B3
:1010980000340134003400340134003401340134A4
:1010A8000034013400340034013401340034003495
:1010B8000134003401340134003400340134013483
:1010C8000034013400340034013401340034003475
:1010D8000134003401340134003401340034003464
:1010E8000134003401340134003400340134013453
:1010F8000034013400340034013401340034003445
:101108000034003400340134003400340134003435
:101118000034003401340134003400340034003425
:101128000034003401340034003400340034003416
:101138000134003400340134003400340034003405
:1011480000340034003400340034003400340034F7
:1011580000340034003400340034003400340034E7
:1011680000340034003400340034003400340034D7
:101178000034003400340034003400342B34483454
:0C118800563464340734103406340E343E
:020000040001F9
:06000E009C39FF3F9F3FFB
:00000001FF
