:08000000803102288731F42F42
:100C9E00F0007008220099000800A0302200980091
:100CAE00990108007830210099009A0198010800F6
:100CBE000B10270099138B15803097000800863192
:100CCE0059268631863172268631863154268631F2
:100CDE0086315F26080022008C01083021008C002E
:100CEE00013023008C0022008D0121008D01230094
:100CFE008D0124008D0122008E01FF3021008E0017
:100D0E0023008E0124008E01210095170800F400A7
:100D1E00F301710873020318080022008D17741C6A
:100D2E009B2E22008D169D2E22008D12701CA22E3F
:100D3E0022000D17A42E22000D138D137436F2000F
:100D4E007208F4007036F2007208F0000130F20002
:100D5E007208F307902EF2017B083839F000700804
:100D6E00FD007D080319CF2E20307D06031DC12EF8
:100D7E00F217CF2E10307D06031DC72E7217CF2E01
:100D8E0030307D06031DCF2EC030F0007008F20407
:100D9E007B080739F0007008FD007D080319EB2E63
:100DAE0004307D06031DDD2EF216EB2E02307D067D
:100DBE00031DE32E7216EB2E06307D06031DEB2E61
:100DCE003030F0007008F20422000C128C16000075
:100DDE0022008C12F1010830710203180D2F721CC3
:100DEE00FB2E22000C16FD2E22000C128C1600007B
:100DFE0022008C127236F0007008F2000130F00002
:100E0E007008F10708307102031CF62E0C128C16B6
:100E1E00000022008C120800F80022008D160D171B
:100E2E008D120D13C8308400883085000008F6003E
:100E3E007608F0000430F7007708F100C83084001F
:100E4E0088308500000886318E2687318230F60084
:100E5E007608F0000830F7007708F100823086310E
:100E6E008E268731F001F00AF101F10A0130863148
:100E7E008E2687317508003E840088300318013EA7
:100E8E0085000008F6007608F0000830F7007708B5
:100E9E00F1007808003E840088300318013E85007A
:100EAE00000886318E2687317508413E84008830D1
:100EBE000318013E85000008F6007608F0000230A7
:100ECE00F7007708F1007808413E84008830031857
:100EDE00013E8500000886318E260800200025037D
:100EEE000319862F863166268731003086314F26CC
:100EFE00873122008C100C128C120C110D12200056
:100F0E00A501A50A2700991B8E2F63008F2F991319
:100F1E00C03020000E05F900C0307906031D8F2F5A
:100F2E000E08F9007908FB00C0300E05F90080307C
:100F3E007906031D9B2F0E083F39F9007908A10091
:100F4E00C0300E05F90040307906031DA72F0E089C
:100F5E003F39F9007908FC008E1FB32F0E087F3938
:100F6E00F9007908A2008E1BBA2F0E087F39F900FE
:100F7E007908A3007C08F9000330F935FF3E031D04
:100F8E00C42F7935C039FA007A08A4002408210448
:100F9E00F9007908A400240886314F268731FC1CFD
:100FAE00DB2F22000C15DD2F22000C117C1CE12FF3
:100FBE000D16E22F0D1220002308F9007908F50016
:100FCE00220887311327873122008C148631B226EE
:100FDE00873122008C1063008F2FFB01FC01FD0175
:100FEE00A001A101A201A301A401A5012000873146
:100FFE00752F003480344034C0342034A034603433
:10100E00E034103490345034D0343034B034703442
:10101E00F034083488344834C8342834A83468345A
:10102E00E834183498345834D8343834B8347834E2
:10103E00F834043484344434C4342434A43464344E
:10104E00E434143494345434D4343434B4347434E2
:10105E00F4340C348C344C34CC342C34AC346C34FA
:10106E00EC341C349C345C34DC343C34BC347C3482
:10107E00FC340634013400340034013400340134BD
:10108E0001340034003401340134003401340034AE
:10109E00003401340034013401340034013400349E
:1010AE00003401340134003400340134003401348E
:1010BE00013400340034013401340034013400347E
:1010CE00003401340134003400340134003401346E
:1010DE00013400340134003400340134003401345E
:1010EE00013400340034013401340034013400344E
:1010FE000034013401340034003400340034003440
:10110E00013400340034013400340034003401342E
:10111E00013400340034003400340034003401341F
:10112E000034003400340034003401340034003410
:10113E000134003400340034003400340034003400
:10114E0000340034003400340034003400340034F1
:10115E0000340034003400340034003400340034E1
:10116E0000340034003400340034003400340034D1
:10117E000034003400342B3448345634643407348D
:06118E00103406340E349B
:020000040001F9
:06000E009C39FF3F9F3FFB
:00000001FF
