:08000000803102288731F52F41
:100CB600F0007008220099000800A0302200980079
:100CC600990108007830210099009A0198010800DE
:100CD6008B170B178B15803027009700080086317D
:100CE6006526863186317E268631863160268631B6
:100CF60086316B26080022008C01083021008C000A
:100D0600013023008C0022008D0121008D0123007B
:100D16008D0124008D0122008E01FF3021008E00FE
:100D260023008E0124008E01210095170800F4008F
:100D3600F301710873020318080022008D17741C52
:100D4600A72E22008D16A92E22008D12701CAE2E03
:100D560022000D17B02E22000D138D137436F200EB
:100D66007208F4007036F2007208F0000130F200EA
:100D76007208F3079C2EF2017B083839F0007008E0
:100D8600FD007D080319DB2E20307D06031DCD2EC8
:100D9600F217DB2E10307D06031DD32E7217DB2EC5
:100DA60030307D06031DDB2EC030F0007008F204E3
:100DB6007B080739F0007008FD007D080319F72E3F
:100DC60004307D06031DE92EF216F72E02307D064D
:100DD600031DEF2E7216F72E06307D06031DF72E25
:100DE6003030F0007008F20422000C128C1600005D
:100DF60022008C12F101083071020318192F721C9F
:100E0600072F22000C16092F22000C128C16000048
:100E160022008C127236F0007008F2000130F000E9
:100E26007008F10708307102031C022F0C128C1691
:100E3600000022008C120800F80022008D160D1703
:100E46008D120D13C8308400883085000008F60026
:100E56007608F0000430F7007708F100C830840007
:100E660088308500000886319A2687318230F60060
:100E76007608F0000830F7007708F10082308631F6
:100E86009A268731F001F00AF101F10A0130863124
:100E96009A2687317508003E840088300318013E83
:100EA60085000008F6007608F0000830F70077089D
:100EB600F1007808003E840088300318013E850062
:100EC600000886319A2687317508413E84008830AD
:100ED6000318013E85000008F6007608F00002308F
:100EE600F7007708F1007808413E8400883003183F
:100EF600013E8500000886319A26080027009913CE
:100F0600863172268731003086315B268731220092
:100F16008C100C128C120C110D12C03020000E0514
:100F2600F900C0307906031D902F0E08F9007908E4
:100F3600FB00C0300E05F90080307906031D9C2F9A
:100F46000E083F39F9007908A100C0300E05F900F6
:100F560040307906031DA82F0E083F39F90079089D
:100F6600FC008E1FB42F0E087F39F9007908A20005
:100F76008E1BBB2F0E087F39F9007908A3007C0869
:100F8600F9000330F935FF3E031DC52F7935C03909
:100F9600FA007A08A40024082104F9007908A400BC
:100FA600240886315B268731FC1CDC2F22000C15B9
:100FB600DE2F22000C117C1CE22F0D16E32F0D12E2
:100FC60020002308F9007908F500220887311F2739
:100FD600873122008C148631BE26873122008C1080
:100FE6006300902FFB01FC01FD01A001A101A201FC
:100FF600A301A40120008731812F003480344034BE
:10100600C0342034A0346034E0341034903450348A
:10101600D0343034B0347034F03408348834483442
:10102600C8342834A8346834E8341834983458342A
:10103600D8343834B8347834F83404348434443406
:10104600C4342434A4346434E4341434943454342A
:10105600D4343434B4347434F4340C348C344C34E2
:10106600CC342C34AC346C34EC341C349C345C34CA
:10107600DC343C34BC347C34FC3406340134003477
:1010860000340134003401340134003400340134B6
:1010960001340034013400340034013400340134A6
:1010A6000134003401340034003401340134003496
:1010B6000034013400340134013400340034013486
:1010C6000134003401340034003401340134003476
:1010D6000034013400340134013400340134003466
:1010E6000034013400340134013400340034013456
:1010F6000134003401340034003401340134003446
:101106000034003400340034013400340034013437
:101116000034003400340134013400340034003427
:101126000034003400340134003400340034003418
:101136000034013400340034013400340034003407
:1011460000340034003400340034003400340034F9
:1011560000340034003400340034003400340034E9
:1011660000340034003400340034003400340034D9
:1011760000340034003400340034003400342B349E
:0E1186004834563464340734103406340E34C2
:020000040001F9
:06000E009C39FF3F9F3FFB
:00000001FF
