:08000000803102288731F62F40
:100D1C0022009801990108007830210099009A016D
:100D2C00980108008631922686318631A1268631BB
:100D3C0086318E26080022008C01093021008C009F
:100D4C00013023008C0022008D0121008D01230035
:100D5C008D0124008D0122008E01FF3021008E00B8
:100D6C0023008E0124008E01210095170800F40049
:100D7C00F301710873020318080022008D17741C0C
:100D8C00CA2E22008D16CC2E22008D12701CD12E54
:100D9C0022000D17D32E22000D138D137436F20082
:100DAC007208F4007036F2007208F0000130F200A4
:100DBC007208F307BF2E7A080339031DE72E303073
:100DCC00F92E03307A05F0007003031DEF2E10305E
:100DDC00F92E03307A05F00002307006031DF82E50
:100DEC00B030F92E9030F0007008F20022000C1296
:100DFC008C16000022008C12F101083071020318CD
:100E0C001E2F721C0C2F22000C160E2F22000C12FF
:100E1C008C16000022008C127236F0007008F20062
:100E2C000130F0007008F10708307102031C072F25
:100E3C000C128C16000022008C12080086319826A9
:100E4C0087318631A126873122008C100C128C122E
:100E5C000C110D12C03020000E05F900C0307906BF
:100E6C00031D302F0E08F9007908FA00C0300E056A
:100E7C00F90040307906031D3C2F0E083F39F9006C
:100E8C007908FB00C0300E05F90080307906031D8F
:100E9C00482F0E083F39F9007908FC007A080C3904
:100EAC00031D5A2F7C086B2F0C307A05F900043087
:100EBC007906031D632F7C08712F0C307A05F9001D
:100ECC0008307906031D702F4030F9007908F500C1
:100EDC007B08752F4030F9007908F50040308731D8
:100EEC008027873122008C148631E126873122003D
:100EFC008C10302FF80022008D160D178D120D134B
:100F0C00C8308400883085000008F6007608F000B0
:100F1C000430F7007708F100C83084008830850071
:100F2C0000088631BD2687310230F6007608F000C5
:100F3C000330F7007708F10002308631BD26873187
:100F4C00C7308400883085000008F6007608F00071
:100F5C000530F7007708F100C73084008830850031
:100F6C0000088631BD268731F001F00AF101F10A43
:100F7C0001308631BD2687317508003E84008830EB
:100F8C000318013E85000008F6007608F0000830D2
:100F9C00F7007708F1007808003E840088300318C9
:100FAC00013E850000088631BD2687317508413E1B
:100FBC00840088300318013E85000008F60076088E
:100FCC00F0000230F7007708F1007808413E840009
:100FDC0088300318013E850000088631BD260800C4
:100FEC00FA01FB01FC01FD01A001A101A2012000FD
:100FFC008731242F003480344034C0342034A03462
:10100C006034E034103490345034D0343034B03454
:10101C007034F034083488344834C8342834A83454
:10102C006834E834183498345834D8343834B834F4
:10103C007834F834043484344434C4342434A4343C
:10104C006434E434143494345434D4343434B434F4
:10105C007434F4340C348C344C34CC342C34AC34F4
:10106C006C34EC341C349C345C34DC343C34BC3494
:10107C007C34FC3406340134003400340134003444
:10108C0001340134003400340134013400340134AF
:10109C0000340034013400340134013400340134A0
:1010AC000034003401340134003400340134003491
:1010BC00013401340034003401340134003401347F
:1010CC000034003401340134003400340134003471
:1010DC000134013400340134003400340134003460
:1010EC00013401340034003401340134003401344F
:1010FC000034003401340134003400340034003442
:10110C000034013400340034013400340034003431
:10111C000134013400340034003400340034003421
:10112C000134003400340034003400340134003411
:10113C000034013400340034003400340034003402
:10114C0000340034003400340034003400340034F3
:10115C0000340034003400340034003400340034E3
:10116C0000340034003400340034003400340034D3
:10117C0000340034003400342B3448345634643496
:08118C000734103406340E3460
:020000040001F9
:06000E009C39FF3F9F3FFB
:00000001FF
