:0400000040EF0EF0CF
:101C1A000A6E0AC040FF1200F286F290F180800E2E
:101C2A00626E1200A00E0F01416F000E0F01406F8D
:101C3A001200700ED36E040ED26E400E9B6E12000E
:101C4A00000EC76E200EC66E000EC86E12000A6E17
:101C5A00C69E0AC0C9FF00D0C7A0FED7C95012004D
:101C6A001EEC0EF04BEC0EF017EC0EF025EC0EF01D
:101C7A0011EC0EF0120000EE01F0090EEE6AE80611
:101C8A00FDE1000EF86E0001AEEF0EF0000E896E57
:101C9A00380E926E2C0E0F01386F000E8A6E936802
:101CAA00000E0F01396F000E616E000E8B6ED40E9E
:101CBA00946ED40E0F013A6FF18E12000C6E8B8A5D
:101CCA0000D08B9A00D0FD0EF66E1F0EF76E08003C
:101CDA00F5502CEC0EF00C50010DB10EF324F66EFB
:101CEA001E0EF420F76E0800F5502CEC0EF00C5086
:101CFA00010D330EF324F66E1F0EF420F76E080062
:101D0A00F5502CEC0EF000D08B8A00D08B9A00D0C4
:101D1A00FE0EF66E1F0EF76E0800F5502CEC0EF054
:101D2A000B50010DB10EF324F66E1E0EF420F76E61
:101D3A000800F5502CEC0EF00B50010D330EF32475
:101D4A00F66E1F0EF420F76E0800F5502CEC0EF01C
:101D5A0012000904D8B411D001D00FD035EC0EF01E
:101D6A0000D0899000D0899200D0899C00D0899EA9
:101D7A0000D08B9000D08B9200D0010E096EF2A099
:101D8A008ED0F29000D08250C00BC00AD8A4FBD7E4
:101D9A0082CF01F000D08250C00B800AD8A4FBD7B2
:101DAA0082503F0B036E00D08250C00B400AD8A469
:101DBA00FBD782503F0B046E00D082AEFED7825012
:101DCA007F0B056E00D082BEFED782507F0B066E57
:101DDA000438F00BC00B076E07500310076E07504C
:101DEA000DEC0EF004A202D0898002D0899000D0B6
:101DFA0004A002D0898202D0899200D006C00BF0DA
:101E0A00055063EC0EF010D0899C04D003D032D078
:101E1A00898C00D0899E2ED0899C04D003D02AD0E8
:101E2A00898C00D0898E26D00150380B0D6E0E6A2F
:101E3A000E50000AD8A41ED00D50000AD8B4E4D718
:101E4A00100AD8B4E9D7300AD8B4E2D7100AD8B4FD
:101E5A00E7D710D08B9004D003D021D08B8000D04C
:101E6A008B921DD08B9004D003D019D08B8000D0D8
:101E7A008B8215D00150070B0D6E0E6A0E50000AA8
:101E8A00D8A40DD00D50000AD8B4E4D7020AD8B4A9
:101E9A00E9D7060AD8B4E2D7020AD8B4E7D70300CA
:101EAA0072D700EF00F00018181818181818181828
:101EBA001818181818181818181818181818181898
:101ECA00181818181818181919191919191919197F
:101EDA001919191919191919191919191919191968
:101EEA00191919191919191A008040C020A060E09F
:101EFA00109050D030B070F0088848C828A868E818
:101F0A00189858D838B878F8048444C424A464E4E7
:101F1A00149454D434B474F40C8C4CCC2CAC6CECB7
:101F2A001C9C5CDC3CBC7CFC060408101C202C3489
:101F3A0038404C54586468707C808C9498A4A8B03B
:101F4A00BCC4C8D0DCE0ECF4F8000C141824283027
:101F5A003C4448505C606C74788488909CA0ACB413
:101F6A00B8C0CCD4D8E4E8F0FC04010000010001B8
:101F7A00010000010100010000010001010001004F
:101F8A00000101000001000101000001010001003F
:101F9A00000101000001000101000100000100012F
:101FAA000100000101000100000101000000000021
:101FBA000100000100000001010000000000000112
:101FCA000000000000010000010000000000000005
:101FDA0000000000000000000000000000000000F7
:101FEA0000000000000000000000002B48566407B3
:061FFA0010060E647400E5
:020000040020DA
:08000000FFFFFFFFFFFFFFFF00
:020000040030CA
:0E000000FF38193CFFBD84FF000003E0034001
:00000001FF
