:0400000090EF02F08B
:1002000000008040C020A060E0109050D030B0705E
:10021000F0088848C828A868E8189858D838B878E6
:10022000F8048444C424A464E4149454D434B4740A
:10023000F40C8C4CCC2CAC6CEC1C9C5CDC3CBC7C86
:10024000FC060100000100010100000101000100A5
:100250000001000101000100000101000001000196
:100260000100000101000100000101000001000186
:100270000100010000010001010000010100010076
:100280000001010000000000010000010000000169
:10029000010000000000000100000000000100005B
:1002A000010000000000000000000000000000004D
:1002B000000000000000000000000000000000003E
:1002C0000000002B4856640710060E00F2909DECCB
:1002D00002F0000EBBEC02F000D0899000D08992B1
:1002E00000D0899C00D0899E00D08B9000D08B924A
:1002F00000D08250C00BC00AD8A4FBD782CF01F037
:1003000000D08250C00B800AD8A4FBD782503F0B8C
:10031000036E00D08250C00B400AD8A4FBD7825095
:100320003F0B046E00D082AEFED782507F0B056E6D
:1003300000D082BEFED782507F0B066E0438F00BD1
:10034000C00B076E07500310076E0750BBEC02F09E
:1003500004A202D0898002D0899000D004A002D0EB
:10036000898202D0899200D006C00DF0055001ECC0
:1003700002F00150380B086E0850D8A404D0899CB4
:1003800008D007D018D0200E0818D8A404D0898C23
:1003900000D0899E10D0100E0818D8A404D0899CD3
:1003A00008D007D008D0300E0818D8A404D0898C03
:1003B00000D0898E00D00150070B086E0850D8A4D9
:1003C00004D08B9008D007D018D0040E0818D8A4F9
:1003D00004D08B8000D08B9210D0020E0818D8A4C5
:1003E00004D08B9008D007D008D0060E0818D8A4E7
:1003F00004D08B8000D08B8200D003007AD700EF2E
:1004000000F00E6E898600D0898800D0899600D0D1
:10041000899800D0C90EF66E0800F5CF09F0040ED9
:100420000A6EC90EF66E0800F55058EC02F0820E06
:10043000096E080E0A6E820E58EC02F0010E096E6B
:10044000010E0A6E010E58EC02F00D50010D010E66
:10045000F324F66E020EF420F76E0800F5CF09F0D3
:10046000080E0A6E0E50010D010EF324F66E020EF8
:10047000F420F76E0800F55058EC02F00D50010D15
:10048000420EF324F66E020EF420F76E0800F5CF4C
:1004900009F0020E0A6E0E50010D420EF324F66EA4
:1004A000020EF420F76E0800F55058EC02F012002E
:1004B0000C6E000E0B6E17D0898A00D00CB002D0E3
:1004C000899601D0898609B002D0899801D089889F
:1004D00000D0899A00D0D8900C300C6ED89009309A
:1004E000096E0B2A00D00A500B5CD8A0E5D7120089
:1004F000000E896E000E926E040E0F01386F000E12
:100500008A6E9368000E0F01396F000E616E000E47
:100510008B6EFC0E946EFC0E0F013A6FF18E120082
:1005200000EE01F0080EEE6AE806FDE1000EF86E3E
:10053000020EF76E000166EF01F0A6EC02F078EC17
:1005400002F0B4EC02F0ADEC02F01200700ED36ECB
:10055000040ED26E400E9B6E1200F28EF28CF2866A
:10056000F290F180628E1200A00E0F01416F000E1A
:0E0570000F01406F1200096E09C040FF12001B
:020000040020DA
:08000000FFFFFFFFFFFFFFFF00
:020000040030CA
:0E000000FF38193CFFBD84FF000003E0034001
:00000001FF
