:08000000803102288731F62F40
:100AF80022009801990108007830210099009A0194
:100B0800980108008531802585318531AB258531EF
:100B180085317C250800F200F10172080319A42D23
:100B28007108031D992D01309A2D0030F0007008CE
:100B3800F1007208FF3E7205F0007008F200912D76
:100B480071080319A92D003008000130080022009F
:100B58008C01093021008C00013023008C00220018
:100B68008D0121008D0123008D0124008D012200BB
:100B78008E01FF3021008E0023008E0124008E019B
:100B8800210095170800F400F30171087302031897
:100B9800080022008D17741CD42D22008D16D62D26
:100BA80022008D12701CDB2D22000D17DD2D220076
:100BB8000D13000022008D137436F2007208F40041
:100BC8007036F2007208F0000130F2007208F30784
:100BD800C92D7D080339031DF32D3030052E033050
:100BE8007D05F0007003031DFB2D1030052E03302A
:100BF8007D05F00002307006031D042EB030052E6E
:100C08009030F0007008F20022000C128C160000E0
:100C180022008C12F1010830710203182A2E721C6E
:100C2800182E22000C161A2E22000C128C16000008
:100C380022008C127236F0007008F2000130F000C9
:100C48007008F10708307102031C132E0C128C1661
:100C5800000022008C1208008531862586318531F6
:100C68007C2586318531AB25863122008C100C120B
:100C78008C120C110D12C03020000E05A600C030D9
:100C88002606031D3F2E0E08A6002608FD00C030CC
:100C98000E05A60040302606031D4B2E0E083F39D0
:100CA800A6002608A000C0300E05A6008030260643
:100CB800031D572E0E083F39A6002608A1003C3018
:100CC8007D05A60020302606031D6E2E22000C117D
:100CD8000D16962E7D0830390319932E7D080C3990
:100CE8000319932E22000D1620002008413E84008F
:100CF80088300318013E85001200031D8D2E21083F
:100D0800413E840088300318013E85001200031913
:100D1800902E22000C15962E22000C11962E2200E1
:100D28000C110D127D080C39031DA52E200020087A
:100D3800A6002608F5002108A7002708F6002108C4
:100D4800C82E0C307D052000A60004302606031DA1
:100D5800B72E4030A6002608F5002108A70027086E
:100D6800F6002108D72E0C307D052000A60008309B
:100D78002606031DCD2E2008A6002608F5004030C3
:100D8800A7002708F6004030A8002808F700200828
:100D9800DB2E40302000A6002608F5004030A700D2
:100DA8002708F6004030A8002808F70040308631B0
:100DB800E626863122008C148531ED258631220005
:100DC8008C103F2EFA007A08003E84008830031801
:100DD800013E8500000885318F258631F8007808A6
:100DE8002000A2007508003E840088300318013EE8
:100DF8008500000885318F258631F80078082000A5
:100E0800A3007608003E840088300318013E850060
:100E1800000885318F258631F80078082000A40065
:100E28007708003E840088300318013E85000008DA
:100E380085318F258631F80078082000A500FC014F
:100E480002307C0203180800FB0102307B02031801
:100E5800F12F22008D160D17000022008D120D13A0
:100E68007C08873E840088300318013E850000080E
:100E7800F8007808F0000430F9007908F1007C08DF
:100E8800873E840088300318013E850000088531BC
:100E9800C72586310230F8007808F0000330F900E1
:100EA8007908F10002308531C72586317B08853EF7
:100EB800840088300318013E85000008F80078088F
:100EC800F0000530F9007908F1007B08853E8400C0
:100ED80088300318013E850000088531C725863112
:100EE8007C08031D7D2FF001F00AF101F10A0130A1
:100EF800812FF001F101F10A00308531C7258631D3
:100F08007B08031D982FF0010830F8007808F100DD
:100F180000308531C7258631F001F00A0230F8002B
:100F28007808F1000130E42F7C08031DC02F7608F3
:100F3800003E840088300318013E85000008F80050
:100F48007808F0000830F9007908F1007A08003EC6
:100F5800840088300318013E850000088531C725C4
:100F6800863120002408F8007808F0000230F900E3
:100F78007908F1002208E42F7708003E84008830C1
:100F88000318013E85000008F8007808F0000830D2
:100F9800F9007908F1007508003E840088300318CC
:100FA800013E850000088531C725863120002508C7
:100FB800F8007808F0000230F9007908F1002308F9
:100FC8008531C7258631000000000130F800780817
:100FD800FB0702307B02031C2D2F0130F800780834
:100FE800FC07242FFD01A001A101A201A301A40176
:100FF800A50120008631302E003480344034C034BE
:101008002034A0346034E034103490345034D03478
:101018003034B0347034F034083488344834C83448
:101028002834A8346834E834183498345834D83418
:101038003834B8347834F834043484344434C43418
:101048002434A4346434E434143494345434D43418
:101058003434B4347434F4340C348C344C34CC34E8
:101068002C34AC346C34EC341C349C345C34DC34B8
:101078003C34BC347C34FC34063400340034003452
:1010880000340034013400340034013400340034B6
:1010980000340134013400340034003400340034A6
:1010A8000034013400340034003400340034013496
:1010B8000034003401340034003400340034003487
:1010C8000034003400340034003400340034003478
:1010D8000034003400340034003400340034003468
:1010E8000034003400340034003400340034003458
:1010F800003400340034003400342B34483456347F
:0A11080064340734103406340E344A
:020000040001F9
:06000E009C39FF3F9F3FFB
:00000001FF
