:08000000803102288731F42F42
:100DA000A03022009800990108007A3021009900B3
:100DB0009A019801080024009401203095009201C6
:100DC00008000B10270099138B158030970008003E
:100DD000F9002400951379089100141CED2E1108D8
:100DE00008008631D5268631873100278631863145
:100DF000D02686318631E12686318631DB26080011
:100E000022008C010C3021008C00013023008C006A
:100E100022008D0121008D0123008D0124008D0110
:100E200022008E01FF3021008E0023008E0124005D
:100E30008E012100951711303D009E000F303C00BF
:100E4000A00010303D009F000800FA003D009E0108
:100E500022000D130D170D1311303D009E008D3033
:100E600084008930850000088631E82687316030AB
:100E70007A06031D432F1B308631E8268731043064
:100E80008631E82608007A08003E8400883003187E
:100E9000013E850000088631E82687317A08C33E86
:100EA000840088300318013E850000088631E8265A
:100EB000080078030319652F8631F1268731220057
:100EC0008C100C120D128C128D12F801F80A2700EA
:100ED000991B6C2F63006D2F9913C03020000E05F5
:100EE000FB00C0307B06031D6D2F0E08FB007B0846
:100EF000F000C0300E05FB0040307B06031D792F4B
:100F00000E083F39FB007B08F100C0300E05FB00E6
:100F100080307B06031D852F0E083F39FB007B08C0
:100F2000F200C0300E05FB0040307B06031D912F00
:100F30000E083F39FB007B08F3008E1F9D2F0E0823
:100F40007F39FB007B08F40030307305FB00103064
:100F50007B06031DCF2F7408873125278731CF2FBC
:100F600022008C14C72FCA2F22008C14CC2F2200F1
:100F70008C10BC2F22008C140C16CD2F22008C104C
:100F8000C32F22008C140C12C82F22008C100C16B8
:100F90000D16F22F22008C100C120D12F22F700879
:100FA0003839FB00FC017C08003A0319D82FCA2FFE
:100FB0007B08003A0319B02F083A0319B32F183AE7
:100FC0000319B42F083A0319B72F383A0319BA2F67
:100FD000083A0319BE2F183A0319C12F083A03190A
:100FE000C52FCA2F63006D2FF001F101F201F3014B
:100FF000F401F501F601F701F80120008731592FBE
:101000001834183418341834183418341834183480
:101010001834183418341834183418341834183470
:101020001834183418341834183418341834183460
:101030001834183418341834183418341834183450
:101040001934193419341934193419341934193438
:101050001934193419341934193419341934193428
:101060001934193419341934193419341934193418
:101070001934193419341934193419341934193408
:101080001A34103410341034103410341034103436
:101090001034103410341034103410341034103430
:1010A0001034103410341034103410341034103420
:1010B0001034103410341034103410341034103410
:1010C00010341134113411341134113411341134F9
:1010D00011341134113411341134113411341134E8
:1010E00011341134113411341134113411341134D8
:1010F00011341134113411341134113411341134C8
:1011000011341234003480344034C0342034A034DC
:101110006034E034103490345034D0343034B0344F
:101120007034F034083488344834C8342834A8344F
:101130006834E834183498345834D8343834B834EF
:101140007834F834043484344434C4342434A43437
:101150006434E434143494345434D4343434B434EF
:101160007434F4340C348C344C34CC342C34AC34EF
:101170006C34EC341C349C345C34DC343C34BC348F
:101180007C34FC3402340434083410341C342034ED
:101190002C343434383440344C345434583464347B
:1011A000683470347C3480348C3494349834A4346F
:1011B000A834B034BC34C434C834D034DC34E03463
:1011C000EC34F434F83400340C341434183424344B
:1011D000283430343C344434483450345C34603443
:1011E0006C34743478348434883490349C34A0342F
:1011F000AC34B434B834C034CC34D434D834E4341B
:10120000E834F034FC340034013400340034013468
:10121000003401340134003400340134013400342A
:10122000013400340034013400340134013400341A
:10123000013400340034013401340034003401340A
:1012400000340134013400340034013401340034FA
:1012500001340034003401340134003400340134EA
:1012600000340134013400340134003400340134DA
:1012700000340134013400340034013401340034CA
:1012800001340034003401340034003400340034BC
:1012900000340034013400340034013400340034AC
:1012A000003401340134003400340034003400349C
:1012B000003401340034003400340034003401348C
:1012C000003400340134003400340034003400347D
:1012D000003400340034003400340034003400346E
:1012E000003400340034003400340034003400345E
:1012F000003400340034003400340034003400344E
:10130000003400340034003400342B344834563474
:0E13100064340734103406340E3464347434FC
:020000040001F9
:06000E009C39FB3F9F3FFF
:00000001FF
