:08000000803102288731F62F40
:100EA20022009801990108007830210099009A01E6
:100EB200980108008B170B178B15803027009700BD
:100EC200080087315527873187316E27873187316F
:100ED2005127873187315B27080022008C010F30B0
:100EE20021008C00073023008C0022008D01C030CD
:100EF20021008D0023008D0124008D0122008E012E
:100F0200FF3021008E0023008E0124008E0121007B
:100F1200951708000B18982F873162278731873180
:100F22006E27873122000C128C120D128D12C030E6
:100F320020000E05F700C0307706031D982F0E081B
:100F4200F7007708F00070083839031DAB2F220034
:100F52000C12B42F38307005F70020307706031DCD
:100F6200B62F22000C168C12CA2F38307005F700EB
:100F720010307706031DC02F22000C12C92F383003
:100F82007005F70030307706031DCA2F22000C16B9
:100F92008C1670080739031DD12F22000D12DA2F8B
:100FA20007307005F70004307706031DDC2F22009E
:100FB2000D168D12F02F07307005F70002307706FC
:100FC200031DE62F22000D12EF2F07307005F700E8
:100FD20006307706031DF02F22000D168D1627000E
:100FE2001909190599006300982FF001F101F20126
:100FF200F301F401F501F601200087318B2F003453
:1010020080344034C0342034A0346034E0341034AE
:1010120090345034D0343034B0347034F034083436
:1010220088344834C8342834A8346834E83418344E
:1010320098345834D8343834B8347834F8340434E2
:1010420084344434C4342434A4346434E43414344E
:1010520094345434D4343434B4347434F4340C34D6
:101062008C344C34CC342C34AC346C34EC341C34EE
:101072009C345C34DC343C34BC347C34FC34063484
:1010820001340034003401340034013401340034BA
:1010920000340134013400340134003400340134AA
:1010A200003401340134003401340034003401349A
:1010B200013400340034013400340134013400348A
:1010C200003401340134003401340034003401347A
:1010D200013400340034013400340134013400346A
:1010E200013400340034013400340134013400345A
:1010F200003401340134003401340034003401344A
:10110200013400340034003400340034013400343B
:10111200003401340034003400340134013400342A
:10112200003400340034003400340134003400341C
:10113200003400340034013400340034013400340B
:1011420000340034003400340034003400340034FD
:1011520000340034003400340034003400340034ED
:1011620000340034003400340034003400340034DD
:1011720000340034003400340034003400340034CD
:1011820000342B3448345634643407341034063473
:021192000E3419
:020000040001F9
:06000E001C39FF3F9F3F7B
:00000001FF
