:08000000803102288731F62F40
:100EC80022009801990108007830210099009A01C0
:100ED800980108008731682787318731772787315C
:100EE80087316427080022008C010F3021008C0014
:100EF800073023008C0022008D01C03021008D00B6
:100F080023008D0124008D0122008E01FF30210075
:100F18008E0023008E0124008E0121009517080001
:100F280087316E27873187317727873122000C1266
:100F38008C120D128D12C03020000E05F700C03043
:100F48007706031D9F2F0E08F7007708F00070083A
:100F58003839031DB22F22000C12BB2F3830700510
:100F6800F70020307706031DBD2F22000C168C12C7
:100F7800D12F38307005F70010307706031DC72FC2
:100F880022000C12D02F38307005F7003030770669
:100F9800031DD12F22000C168C1670080739031D6B
:100FA800D72F22009D2F07307005F70004307706F1
:100FB800031DE12F22000D169E2F07307005F70044
:100FC80002307706031DEB2F22000D12F42F073095
:100FD8007005F70006307706031D9F2F22000D16B7
:100FE8008D169F2FF001F101F201F301F401F501D3
:100FF800F60120008731942F003480344034C03407
:101008002034A0346034E034103490345034D03478
:101018003034B0347034F034083488344834C83448
:101028002834A8346834E834183498345834D83418
:101038003834B8347834F834043484344434C43418
:101048002434A4346434E434143494345434D43418
:101058003434B4347434F4340C348C344C34CC34E8
:101068002C34AC346C34EC341C349C345C34DC34B8
:101078003C34BC347C34FC34063401340034003451
:1010880001340034013401340034003401340134B3
:1010980000340134003400340134003401340134A4
:1010A8000034013400340034013401340034003495
:1010B8000134003401340134003400340134013483
:1010C8000034013400340034013401340034003475
:1010D8000134003401340134003401340034003464
:1010E8000134003401340134003400340134013453
:1010F8000034013400340034013401340034003445
:101108000034003400340134003400340134003435
:101118000034003401340134003400340034003425
:101128000034003401340034003400340034003416
:101138000134003400340134003400340034003405
:1011480000340034003400340034003400340034F7
:1011580000340034003400340034003400340034E7
:1011680000340034003400340034003400340034D7
:101178000034003400340034003400342B34483454
:0C118800563464340734103406340E343E
:020000040001F9
:06000E001C39FF3F9F3F7B
:00000001FF
