:040000008031132810
:100008007E14803120007F08F8008E1B0E1F0E28FA
:100018008131862978082000FF007E100900803190
:100028001528F001F101F201F301F401F501F601DF
:10003800F701A001A101A2017E10200081317229DF
:100048001834183418341834183418341834183448
:100058001834183418341834183418341834183438
:100068001834183418341834183418341834183428
:100078001834183418341834183418341834183418
:100088001934193419341934193419341934193400
:1000980019341934193419341934193419341934F0
:1000A80019341934193419341934193419341934E0
:1000B80019341934193419341934193419341934D0
:1000C8001A34003480344034C0342034A0346034CE
:1000D800E034103490345034D0343034B034703488
:1000E800F034083488344834C8342834A8346834A0
:1000F800E834183498345834D8343834B834783428
:10010800F834043484344434C4342434A434643493
:10011800E434143494345434D4343434B434743427
:10012800F4340C348C344C34CC342C34AC346C343F
:10013800EC341C349C345C34DC343C34BC347C34C7
:10014800FC3406340434083410341C3420342C3481
:100158003434383440344C34543458346434683487
:1001680070347C3480348C3494349834A434A83477
:10017800B034BC34C434C834D034DC34E034EC3467
:10018800F434F83400340C34143418342434283457
:1001980030343C344434483450345C3460346C3447
:1001A800743478348434883490349C34A034AC3437
:1001B800B434B834C034CC34D434D834E434E83427
:1001C800F034FC3404340134003400340134003495
:1001D8000134013400340034013401340034013472
:1001E8000034003401340034013401340034013463
:1001F8000034003401340134003400340134003454
:100208000134013400340034013401340034013441
:100218000034003401340134003400340134003433
:100228000134013400340134003400340134003422
:100238000134013400340034013401340034013411
:100248000034003401340134003400340034003404
:1002580000340134003400340134003400340034F4
:1002680001340134003400340034003400340034E4
:1002780001340034003400340034003401340034D4
:1002880000340134003400340034003400340034C5
:1002980000340034003400340034003400340034B6
:1002A80000340034003400340034003400340034A6
:1002B8000034003400340034003400340034003496
:1002C80000340034003400342B3448345634643459
:1002D8000734103406340E34643474348231FF2207
:1002E8008131003083313023813122000C110D120D
:1002F8008C100C128C128D122700991B8529630013
:1003080086299913C03020000E05A300C0302306AB
:10031800031D86290E083F39A3002308F000C030CA
:100328000E05A30040302306031D93290E083F390C
:10033800A3002308F100C0300E05A3008030230677
:10034800031D9F290E083F39A3002308F200C0307F
:100358000E05A30040302306031DAB290E080739FC
:10036800A3002308F300C0300E05A3008030230645
:10037800031DB7290E083F39A3002308F400C03035
:100388000E05A30040302306031DC3290E083F397C
:10039800A3002308F500C0300E05A3008030230613
:1003A800031DCF290E083F39A3002308F600C030EB
:1003B8000E05A30040302306031DDB290E083F3934
:1003C800A3002308F700270099138B17700830390A
:1003D8000319FC2970080C390319FC297008033922
:1003E800683E840081300318013E85000008FD291D
:1003F80000308331302381313C3070052000A30068
:1004080020302306031D0C2A22000C110D16312A58
:100418007008303903192E2A70080C3903192E2A4E
:1004280022000D167108283E840081300318013E11
:1004380085001200031D2A2A7208283E8400813094
:100448000318013E8500120003192C2A0C15312AC5
:100458000C11312A22000C110D1272082000A30081
:100468002308FA00710882318D228131492A22003D
:100478008C10402A22008C140C12702A22008C1036
:10048800472A22008C140C16702A7008383920006C
:10049800A300A4012408003A0319532A702A230848
:1004A800083A03193B2A183A03193E2A083A03194D
:1004B800422A383A0319452A702A702A22008C12D7
:1004C800672A22008C168D12882A22008C126E2A26
:1004D80022008C168D16882A700807392000A30080
:1004E800A4012408003A03197A2A882A2308013A21
:1004F8000319622A033A0319652A013A0319692A7A
:10050800073A03196C2A882A8B132700991363006A
:100518008629FB003D009E0122000D170D131130A6
:100528003D009E00703084008130850000088331D2
:100538000E2382317B08243E840080300318013E5C
:100548008500000883310E2382317B08A63E840093
:1005580080300318013E8500000883310E23823164
:100568003D009E0122000D170D1311303D009E0025
:100578007130840081308500000883310E23823178
:100588007A08243E840080300318013E8500000864
:1005980083310E2382317A08A63E84008030031806
:1005A800013E8500000883310E23080022008C01DB
:1005B800083021008C00013023008C0022008D01BE
:1005C80021008D0123008D0124008D0122008E0160
:1005D800FF3021008E0023008E0124008E012100AF
:1005E800951711303D009E000F303C00A0001030E0
:1005F8003D009F0008008331252382318231DA22B1
:10060800823183312B238231833117238231833125
:100618001F230800F9002400951379089100141C81
:10062800132B110808000B102700991319138B15A9
:100638008030970008002400940120309500920132
:1006480008007830210099009A0198010800A0302C
:100658002200980099010800F90079082200990001
:02066800080088
:020000040001F9
:06000E009C39FB3F9F3FFF
:00000001FF
