:08000000803102288731F92F3D
:100D7200A030220097000800F000700822009900BD
:100D82000800A03022009800990108006A30210072
:100D920099009A01980108002400940120309500DE
:100DA20092010800F0002400951370089100141CB1
:100DB200D82E110808008631C726863187312327AD
:100DC20086318631C22686318631B9268631863110
:100DD200CD260800F400F501043075020318072F30
:100DE2007508003E840088300318013E8500000823
:100DF2008631D3268631F1007108FB000130F10003
:100E02007108F50704307502031CF12EF601043057
:100E120076020318080074087607F100F201F20D59
:100E22000030710784008830723D850000088631E9
:100E3200D3268631F3007308FB000130F1007108FC
:100E4200F607082F22008C01283021008C00013087
:100E520023008C0022008D01203021008D00230010
:100E62008D0124008D0122008E01FF3021008E00B1
:100E720023008E0124008E012100951700308B1B68
:100E82000130F0008B1355303C008F00AA308F00E8
:100E92000F100D30A1000E30A00010303D009E005A
:100EA20011309F0055303C008F00AA308F000F1484
:100EB200701C5D2F8B1708008B1308008631DC260F
:100EC20087318631C22687318731232787318631A0
:100ED200CD26873100308631BD26873122008C1025
:100EE2000C120C110D12C03020000E05F700C0309C
:100EF2007706031D742F0E08F7007708F800C0303C
:100F02000E05F70040307706031D802F0E083F398B
:100F1200F7007708F900C0300E05F7008030770639
:100F2200031D8C2F0E083F39F7007708FA00781E50
:100F3200A82F78080C390319A82F78080339583ECE
:100F4200840088300318013E85000008A92F003074
:100F52008631BD26873103307906031DB82F07304D
:100F62007A06031DB82F22008C100C16F02F0730C2
:100F7200790603197A080319EA2F1E307906031934
:100F82007A080319EA2F2930790603197A08031916
:100F9200EA2F05307906031DD22F1E307A06031977
:100FA200EA2F07307906031DDA2F14307A06031967
:100FB200EA2F0C307906031DE22F1E307A06031940
:100FC200EA2F29307906031DED2F29307A06031DF9
:100FD200ED2F22008C14EF2F22008C100C12043003
:100FE2008631EB26873108308631EB268731742F24
:100FF200F801F901FA01FB01200087315F2F8034EB
:101002005C340734403480345C349034413480346E
:101012005C3410347F3480345C3490340034803457
:101022005C341034013480345C3410340234803443
:101032005C341034043480345C341034083480342A
:101042005C341034103480345C34103420348034F6
:101052005C341034403480344C342734403480348F
:101062004C34B034413480344C3430347F348034A6
:101072004C34B034003480344C3430340134803455
:101082004C343034023480344C34303404348034C0
:101092004C343034083480344C343034103480349E
:1010A2004C343034203480344C34303440342A349C
:0610B2004634553463349E
:020000040001F9
:06000E009C39FF3E9F3FFC
:00000001FF
