:08000000803102288731F92F3D
:100CD600A030220097000800F0007008220099005A
:100CE6000800A03022009800990108006A3021000F
:100CF60099009A019801080024009401203095007B
:100D060092010800F0002400951370089100141C4D
:100D16008A2E110808008631792686318631D52635
:100D2600863186317426863186316B268631863148
:100D36007F260800F400F501043075020318B92E69
:100D46007508003E840088300318013E85000008BF
:100D5600863185268631F1007108FB000130F100ED
:100D66007108F50704307502031CA32EF601043042
:100D760076020318080074087607F100F201F20DF6
:100D86000030710784008830723D85000008863186
:100D960085268631F3007308FB000130F1007108E7
:100DA600F607BA2E22008C01283021008C00013073
:100DB60023008C0022008D01203021008D002300AD
:100DC6008D0124008D0122008E01FF3021008E004E
:100DD60023008E0124008E012100951700308B1B05
:100DE6000130F0008B1355303C008F00AA308F0085
:100DF6000F100D30A1000E30A00010303D009E00F7
:100E060011309F0055303C008F00AA308F000F1420
:100E1600701C0F2F8B1708008B13080086318E2647
:100E260087318631742687318631D52687318631DA
:100E36007F268731003086316F26873122008C105D
:100E46000C120C110D12C03020000E05F700C03038
:100E56007706031D262F0E08F7007708F800C03026
:100E66000E05F70040307706031D322F0E083F3976
:100E7600F7007708F900C0300E05F70080307706D6
:100E8600031D3E2F0E083F39F7007708FA00781E3B
:100E96005A2F78080C3903195A2F78080339583E07
:100EA600840088300318013E850000085B2F00305F
:100EB60086316F2687313C307805F700203077067B
:100EC6000319A82F780830390319AC2F78080C3984
:100ED6000319AC2F053079060319A52F08307906BA
:100EE6000319A52F0C3079060319A52F0D307906A5
:100EF6000319A52F143079060319A52F1A30790680
:100F06000319A52F1D3079060319A52F05307A067A
:100F16000319A52F08307A060319A52F0C307A0677
:100F26000319A52F0D307A060319A52F14307A065A
:100F36000319A52F1A307A060319A52F1D307A0634
:100F4600031DA82F22000C15AA2F22000C110D1626
:100F5600AF2F22000C110D1203307906031DBA2F94
:100F660007307A06031DBA2F8C100C16F02F0730A7
:100F7600790603197A080319EC2F1E30790603192E
:100F86007A080319EC2F2930790603197A08031910
:100F9600EC2F05307906031DD42F1E307A0603196F
:100FA600EC2F07307906031DDC2F14307A0603195F
:100FB600EC2F0C307906031DE42F1E307A06031938
:100FC600EC2F29307906031DEE2F29307A06031DF2
:100FD600EE2F8C14EF2F8C100C12043086319D26C8
:100FE6008731083086319D268731262FF801F90191
:100FF600FA01FB0120008731112F80345C3407345D
:10100600403480345C349034413480345C34103461
:101016007F3480345C349034003480345C34103453
:10102600013480345C341034023480345C3410343F
:10103600043480345C341034083480345C34103426
:10104600103480345C341034203480345C341034F2
:10105600403480344C342734403480344C34B034FB
:10106600413480344C3430347F3480344C34B034A2
:10107600003480344C343034013480344C343034D1
:10108600023480344C343034043480344C343034BC
:10109600083480344C343034103480344C3430349A
:1010A600203480344C34303440342B344834563475
:0210B6006434A0
:020000040001F9
:06000E009C39FF3E9F3FFC
:00000001FF
