:08000000803102288731F92F3D
:1009B400F0007008220099000800A030220098007E
:1009C400990108007A30210099009A0198010800E1
:1009D4008431E42484318431F32484318431DF2468
:1009E400080022008C01283021008C0001302300F3
:1009F4008C0022008D01203021008D002030230046
:100A04008D0024008D0122008E01FF3021008E0014
:100A140023008E0124008E01210095170800F300A5
:100A240022008D17000022008D13003084008830CE
:100A340085000008F0007008FD007D36F0007008A5
:100A4400FD00F4010730740203183F2D0D177D1CBF
:100A54002E2D22008D17302D22008D130000220030
:100A64000D137D36F0007008FD000130F0007008B1
:100A7400F40707307402031C282DF801F80A033028
:100A840078020318752D7808003E84008830031816
:100A9400013E85000008F0007008FD00F5010830F3
:100AA400750203186D2D22000D177D1C5C2D22008C
:100AB4008D175E2D22008D13000022000D137D364C
:100AC400F0007008FD000130F0007008F5070830F0
:100AD4007502031C552D0130F0007008F80703302F
:100AE4007802031C452D0000000022008D17000031
:100AF40022008D137308003E840088300318013EE1
:100B040085000008F0007008FD007D36F0007008D4
:100B1400FD00F601073076020318A72D0D177D1C82
:100B2400962D22008D17982D22008D13000022008F
:100B34000D137D36F0007008FD000130F0007008E0
:100B4400F60707307602031C902DF901F90A0330E9
:100B540079020318080073087907F000F101F10D18
:100B64000030700784008830713D85000008F20071
:100B74007208FD00F701083077020318D92D22000E
:100B84000D177D1CC82D22008D17CA2D22008D1330
:100B9400000022000D137D36F0007008FD000130C6
:100BA400F0007008F70708307702031CC12D0130EC
:100BB400F0007008F907A92DF30022008D1700003A
:100BC40022008D1324308400883085000008F00052
:100BD4007008FD007D36F0007008FD00F401073058
:100BE400740203180C2E0D177D1CFB2D22008D178B
:100BF400FD2D22008D13000022000D137D36F00020
:100C04007008FD000130F0007008F407073074022A
:100C1400031CF52DF801F80A033078020318422E5C
:100C24007808243E840088300318013E85000008BB
:100C3400F0007008FD00F5010830750203183A2E23
:100C440022000D177D1C292E22008D172B2E220029
:100C54008D13000022000D137D36F0007008FD0096
:100C64000130F0007008F50708307502031C222ECD
:100C74000130F0007008F80703307802031C122ECC
:100C84000000000022008D17000022008D1373085D
:100C9400243E840088300318013E85000008F000DB
:100CA4007008FD007D36F0007008FD00F601073085
:100CB40076020318742E0D177D1C632E22008D17E7
:100CC400652E22008D13000022000D137D36F000E6
:100CD4007008FD000130F0007008F6070730760256
:100CE400031C5D2EF901F90A033079020318080088
:100CF40073087907F000F101F10D243070078400C6
:100D04008830713D85000008F2007208FD00F7018B
:100D1400083077020318A62E22000D177D1C952E8D
:100D240022008D17972E22008D13000022000D1330
:100D34007D36F0007008FD000130F0007008F70700
:100D440008307702031C8E2E0130F0007008F9077A
:100D5400762E8431EA2486318431DF24863184314D
:100D6400F324863100308431DA24863122008C1059
:100D74000C120C110D12C03020000E05FA00C03008
:100D84007A06031DBD2E0E08FA007A08A000C030B2
:100D94000E05FA0040307A06031DC92E0E083F39AD
:100DA400FA007A08FB00C0300E05FA0080307A069B
:100DB400031DD52E0E083F39FA007A08FC00201EC8
:100DC400F12E20080C390319F12E20080339453E71
:100DD400840088300318013E85000008F22E00309C
:100DE4008431DA2486313C3020002005FA0020309A
:100DF4007A060319412F2000200830390319452FA2
:100E040020080C390319452F05307B0603193E2FA2
:100E140008307B0603193E2F0C307B0603193E2F46
:100E24000D307B0603193E2F14307B0603193E2F29
:100E34001A307B0603193E2F1D307B0603193E2F03
:100E440005307C0603193E2F08307C0603193E2F1B
:100E54000C307C0603193E2F0D307C0603193E2FFF
:100E640014307C0603193E2F1A307C0603193E2FDA
:100E74001D307C06031D412F22000C15432F220038
:100E84000C110D16482F22000C110D1203307B0695
:100E9400031D532F07307C06031D532F8C100C1693
:100EA400892F07307B0603197C080319852F1E3010
:100EB4007B0603197C080319852F29307B06031947
:100EC4007C080319852F05307B06031D6D2F1E300A
:100ED4007C060319852F07307B06031D752F1430FC
:100EE4007C060319852F0C307B06031D7D2F1E30D5
:100EF4007C060319852F29307B06031D872F293093
:100F04007C06031D872F8C14882F8C100C1205303F
:100F14007B06031D992F7C08031D992F21308531F1
:100F24001125863103308531DE258631BD2E05300D
:100F34007B060319A12F05307C06031DA62F033061
:100F4400853111258631BD2E08307B060319AE2F5D
:100F540008307C06031DB32F0630853111258631F8
:100F6400BD2E0C307B060319BB2F0C307C06031DF1
:100F7400C02F0930853111258631BD2E0D307B06F9
:100F84000319C82F0D307C06031DCD2F0C3085317D
:100F940011258631BD2E14307B060319D52F14304C
:100FA4007C06031DDA2F0F30853111258631BD2EC5
:100FB4001A307B060319E22F1A307C06031DE72F33
:100FC4001230853111258631BD2E1D307B06031963
:100FD400EF2F1D307C06031DF42F153085311125AC
:100FE4008631BD2E1E30853111258631BD2EFB0183
:100FF400FC01FD01A00120008631AB2E4C342734C6
:1010040040344C34B03441344C3430347F344C3478
:10101400B03400344C34303401344C343034023481
:101024004C34303404344C34303408344C3430349C
:1010340010344C34303420344C34303440344C3458
:10104400303454345C34073440345C3490344134A8
:101054005C3410347F345C34903400345C341034A9
:1010640001345C34103402345C34103404345C34A1
:10107400103408345C34103410345C3410342034AC
:0E1084005C34103440342B3448345634643419
:020000040001F9
:06000E009C39FF3E9F3FFC
:00000001FF
