:08000000803102288731F92F3D
:100B6E00F0007008220099000800A03022009800C2
:100B7E00990108007A30210099009A019801080025
:100B8E008531C12585318531D02585318531BC250D
:100B9E00080022008C01283021008C000130230037
:100BAE008C0022008D01203021008D00203023008A
:100BBE008D0024008D0122008E01FF3021008E0059
:100BCE0023008E0124008E01210095170800F300EA
:100BDE0022008D17000022008D13213084008830F2
:100BEE0085000008F0007008FD007D36F0007008EA
:100BFE00FD00F4010730740203181C2E0D177D1C26
:100C0E000B2E22008D170D2E22008D1300002200B8
:100C1E000D137D36F0007008FD000130F0007008F5
:100C2E00F40707307402031C052EF801F80A03308E
:100C3E0078020318522E7808213E8400883003185B
:100C4E00013E85000008F0007008FD00F501083037
:100C5E00750203184A2E22000D177D1C392E220014
:100C6E008D173B2E22008D13000022000D137D36B2
:100C7E00F0007008FD000130F0007008F507083034
:100C8E007502031C322E0130F0007008F807033095
:100C9E007802031C222E0000000022008D17000097
:100CAE0022008D137308213E840088300318013E04
:100CBE0085000008F0007008FD007D36F000700819
:100CCE00FD00F601073076020318842E0D177D1CE9
:100CDE00732E22008D17752E22008D130000220018
:100CEE000D137D36F0007008FD000130F000700825
:100CFE00F60707307602031C6D2EF901F90A033050
:100D0E0079020318080073087907F000F101F10D5C
:100D1E002130700784008830713D85000008F20094
:100D2E007208FD00F701083077020318B62E220074
:100D3E000D177D1CA52E22008D17A72E22008D13B8
:100D4E00000022000D137D36F0007008FD0001300A
:100D5E00F0007008F70708307702031C9E2E013052
:100D6E00F0007008F907862E8531C725863185314A
:100D7E00BC2586318531D025863100308531B725A9
:100D8E00863122008C100C120C110D12C030200076
:100D9E000E05FA00C0307A06031DCD2E0E08FA009D
:100DAE007A08A000C0300E05FA0040307A06031D06
:100DBE00D92E0E083F39FA007A08FB00C0300E0516
:100DCE00FA0080307A06031DE52E0E083F39FA0030
:100DDE007A08FC00201E012F20080C390319012F60
:100DEE0020080339423E840088300318013E8500F6
:100DFE000008022F00308531B72586313C302000A7
:100E0E002005FA0020307A060319512F2000200801
:100E1E0030390319552F20080C390319552F053079
:100E2E007B0603194E2F08307B0603194E2F0C300C
:100E3E007B0603194E2F0D307B0603194E2F1430EF
:100E4E007B0603194E2F1A307B0603194E2F1D30C9
:100E5E007B0603194E2F05307C0603194E2F0830E2
:100E6E007C0603194E2F0C307C0603194E2F0D30C5
:100E7E007C0603194E2F14307C0603194E2F1A30A0
:100E8E007C0603194E2F1D307C06031D512F2200A8
:100E9E000C15532F22000C110D16582F22000C1179
:100EAE000D1203307B06031D632F07307C06031DD6
:100EBE00632F8C100C16992F07307B0603197C08B4
:100ECE000319952F1E307B0603197C080319952FE5
:100EDE0029307B0603197C080319952F05307B06F4
:100EEE00031D7D2F1E307C060319952F07307B06C0
:100EFE00031D852F14307C060319952F0C307B06AD
:100F0E00031D8D2F1E307C060319952F29307B066D
:100F1E00031D972F29307C06031D972F8C14982FB5
:100F2E008C100C1205307B060319A12F05307C06A0
:100F3E00031DA62F03308531EE258631CD2E0830C8
:100F4E007B060319AE2F08307C06031DB32F063027
:100F5E008531EE258631CD2E0C307B060319BB2F45
:100F6E000C307C06031DC02F09308531EE258631ED
:100F7E00CD2E0D307B060319C82F0D307C06031DB8
:100F8E00CD2F0C308531EE258631CD2E14307B06DB
:100F9E000319D52F14307C06031DDA2F0F3085313F
:100FAE00EE258631CD2E1A307B060319E22F1A302C
:100FBE007C06031DE72F12308531EE258631CD2EAE
:100FCE001D307B060319EF2F1D307C06031DF42FF9
:100FDE0015308531EE258631CD2E1E308531EE252C
:100FEE008631CD2EFB01FC01FD01A00120008631D2
:100FFE00BB2E5C34073440345C34903441345C3462
:10100E0010347F345C34903400345C34103401344A
:10101E005C34103402345C34103404345C341034D8
:10102E0008345C34103410345C34103420345C34A6
:10103E00103440344C34273440344C34B0344134C2
:10104E004C3430347F344C34B03400344C3430347F
:10105E0001344C34303402344C34303404344C3497
:10106E00303408344C34303410344C343034203472
:0E107E004C34303440342B344834563464340F
:020000040001F9
:06000E009C39FF3E9F3FFC
:00000001FF
