:08000000803102288731F62F40
:100AF200F0007008220099000800A030220098003F
:100B0200990108007A30210099009A0198010800A1
:100B12008531832585318531AE25853185317E2527
:100B22000800F200F10172080319A72D7108031DD4
:100B32009C2D01309D2D0030F0007008F1007208EC
:100B4200FF3E7205F0007008F200942D710803193F
:100B5200AC2D003008000130080022008C01283042
:100B620021008C00013023008C0022008D01210025
:100B72008D0123008D0124008D0122008E01FF30A2
:100B820021008E0023008E0124008E012100951782
:100B92000800F400F3017108730203180800220030
:100BA2000D17741CD72D22008D17D92D22008D13FD
:100BB200701CDE2D22008D16E02D22008D12000009
:100BC20022000D137436F2007208F4007036F2003F
:100BD2007208F0000130F2007208F307CC2D853163
:100BE2008925853185317E2585318531AE25853151
:100BF200003085317925853122008C100C120C11C0
:100C02000D12C03020000E05FD00C0307D06031D10
:100C1200022E0E08FD007D08A000C0300E05FD006A
:100C220040307D06031D0E2E0E083F39FD007D0863
:100C3200A100C0300E05FD0080307D06031D1A2E76
:100C42000E083F39FD007D08A200201E362E200826
:100C52000C390319362E20080339413E84008830AE
:100C62000318013E85000008372E003085317925B2
:100C720085313C3020002005FD0020307D0603191F
:100C8200862E20002008303903198A2E20080C39BC
:100C920003198A2E053021060319832E08302106F6
:100CA2000319832E0C3021060319832E0D302106E1
:100CB2000319832E143021060319832E1A302106BC
:100CC2000319832E1D3021060319832E05302206B7
:100CD2000319832E083022060319832E0C302206B4
:100CE2000319832E0D3022060319832E1430220697
:100CF2000319832E1A3022060319832E1D30220671
:100D0200031D862E22000C15882E22000C110D16B2
:100D12008D2E22000C110D12033020002106031D1E
:100D22009A2E07302206031D9A2E22008C100C16D2
:100D3200D32E073020002106031922080319CD2ED5
:100D42001E302106031922080319CD2E293021064F
:100D5200031922080319CD2E05302106031DB52ED5
:100D62001E3022060319CD2E07302106031DBD2E8B
:100D7200143022060319CD2E0C302106031DC52E78
:100D82001E3022060319CD2E29302106031DD02E36
:100D920029302206031DD02E22008C14D22E2200CE
:100DA2008C100C12053020002106031D022E220891
:100DB200031D022E4030FD007D08F500F601F7010B
:100DC2000A308631E6268531022EFA007A08003E84
:100DD200840088300318013E850000088531922581
:100DE2008631F80078082000A3007508003E8400D0
:100DF20088300318013E850000088531922586312E
:100E0200F80078082000A4007608003E84008830AC
:100E12000318013E85000008853192258631F800CD
:100E220078082000A5007708003E84008830031867
:100E3200013E85000008853192258631F800780848
:100E42002000A600FC0102307C0203180800FB010E
:100E520002307B020318F12F22008D178D1600003D
:100E620022008D138D127C08473E840088300318BF
:100E7200013E85000008F8007808F0000430F9000F
:100E82007908F1007C08473E840088300318013E4F
:100E9200850000088531CA2586310230F8007808BD
:100EA200F0000330F9007908F10002308531CA25DB
:100EB20086317B08453E840088300318013E850058
:100EC2000008F8007808F0000530F9007908F10010
:100ED2007B08453E840088300318013E85000008E7
:100EE2008531CA2586317C08031D7D2FF001F00A69
:100EF200F101F10A0130812FF001F101F10A003014
:100F02008531CA2586317B08031D982FF0010830F0
:100F1200F8007808F10000308531CA258631F001E9
:100F2200F00A0230F8007808F1000130E42F7C0862
:100F3200031DC02F7508003E840088300318013E4F
:100F420085000008F8007808F0000830F9007908F8
:100F5200F1007A08003E840088300318013E8500C3
:100F620000088531CA25863120002408F800780857
:100F7200F0000230F9007908F1002308E42F770825
:100F8200003E840088300318013E85000008F80006
:100F92007808F0000830F9007908F1007608003E80
:100FA200840088300318013E850000088531CA2577
:100FB200863120002608F8007808F0000230F90097
:100FC2007908F10025088531CA2586310000000024
:100FD2000130F8007808FB0702307B02031C2D2F3A
:100FE2000130F8007808FC07242FA001A101A2011A
:100FF200A301A401A501A60120008531F02D003432
:1010020080344034C0342034A0346034E0341034AE
:1010120090345034D0343034B0347034F034083436
:1010220088344834C8342834A8346834E83418344E
:1010320098345834D8343834B8347834F8340434E2
:1010420084344434C4342434A4346434E43414344E
:1010520094345434D4343434B4347434F4340C34D6
:101062008C344C34CC342C34AC346C34EC341C34EE
:101072009C345C34DC343C34BC347C34FC34063484
:101082002B344834563464340734103406340E3466
:020000040001F9
:06000E009C39FF3E9F3FFC
:00000001FF
