:08000000803102288731F62F40
:10063400F0007008220099000800A0302200980001
:10064400990108007A30210099009A019801080064
:1006540083312423833183314F23833183311F2317
:100664000800F200F10172080319482B7108031DF8
:100674003D2B01303E2B0030F0007008F100720871
:10068400FF3E7205F0007008F200352B7108031963
:100694004D2B003008000130080022008C01283066
:1006A40021008C00013023008C0022008D012100E8
:1006B4008D0123008D0124008D0122008E01FF3065
:1006C40021008E0023008E0124008E012100951745
:1006D4000800F400F30171087302031808002200F3
:1006E4000D17741C782B22008D177A2B22008D1382
:1006F400701C7F2B22008D16812B22008D1200008E
:1007040022000D137436F2007208F4007036F20001
:100714007208F0000130F2007208F3076D2BFA0042
:100724007A08003E840088300318013E85000008E2
:10073400833133238331F80078082000A200750840
:10074400003E840088300318013E85000008833190
:1007540033238331F80078082000A3007608003E94
:10076400840088300318013E850000088331332358
:100774008331F80078082000A4007708003E840044
:1007840088300318013E8500000883313323833108
:10079400F80078082000A500FC0102307C02031850
:1007A4000800FB0102307B0203189C2C22008D17E9
:1007B4008D16000022008D138D127C08873E840064
:1007C40088300318013E85000008F8007808F0001E
:1007D4000430F9007908F1007C08873E84008830F1
:1007E4000318013E8500000883316B2383310230F6
:1007F400F8007808F0000330F9007908F1000230BD
:1008040083316B2383317B08853E84008830031851
:10081400013E85000008F8007808F0000530F90072
:100824007908F1007B08853E840088300318013E76
:100834008500000883316B2383317C08031D282C39
:10084400F001F00AF101F10A01302C2CF001F10160
:10085400F10A003083316B2383317B08031D432C61
:10086400F0010830F8007808F100003083316B2380
:100874008331F001F00A0230F8007808F100013009
:100884008F2C7C08031D6B2C7608003E8400883076
:100894000318013E85000008F8007808F0000830CD
:1008A400F9007908F1007A08003E840088300318C2
:1008B400013E8500000883316B2383312000240826
:1008C400F8007808F0000230F9007908F1002208F5
:1008D4008F2C7708003E840088300318013E850081
:1008E4000008F8007808F0000830F9007908F100F1
:1008F4007508003E840088300318013E8500000816
:1009040083316B23833120002508F8007808F00038
:100914000230F9007908F100230883316B23833115
:10092400000000000130F8007808FB0702307B0269
:10093400031CD82B0130F8007808FC07CF2B7D036B
:10094400031DA82C200021080319D32C02307D0696
:10095400031DB02C200021080319D32C0C307D0674
:10096400031DB82C200021080319D32C02307D0666
:10097400031DC12C0C30200021060319D32C023096
:100984007D06031DCA2C0D30200021060319D32C2B
:1009940002307D06031DD52C1D3020002106031DC9
:1009A400D52CF2019F2D05307D06031DDD2C200082
:1009B40021080319ED2C08307D06031DE52C2000C9
:1009C40021080319ED2C1D307D06031DEF2C20009A
:1009D4002108031DEF2C20309C2D03307D06031DC0
:1009E400F72C2000210803190F2D0D307D06031D5F
:1009F400FF2C2000210803190F2D14307D06031D40
:100A0400072D2000210803190F2D19307D06031D21
:100A1400112D20002108031D112D10309C2D1E3096
:100A24007D06031D192D200021080319222D2930CC
:100A34007D06031D242D293020002106031D242DAD
:100A440080309C2D07307D06031D2E2D20002108AB
:100A5400031D2E2DA0309C2D29307D06031D382D1D
:100A640020002108031D382D90309C2D0C307D066C
:100A7400031D432D1E3020002106031D432DB030DD
:100A84009C2D03307D06031D4E2D073020002106CA
:100A9400031D4E2D40309C2D03307D06031D592D22
:100AA400143020002106031D592D60309C2D043084
:100AB4007D06031D642D053020002106031D642DD1
:100AC40050309C2D04307D06031D6F2D0C3020000A
:100AD4002106031D6F2D70309C2D04307D06031DEF
:100AE4007A2D0D3020002106031D7A2DC0309C2D57
:100AF40004307D06031D852D1D3020002106031DB5
:100B0400852DE0309C2D05307D06031D902D1E3073
:100B140020002106031D902DD0309C2D07307D062A
:100B2400031D9B2D143020002106031D9B2DF03046
:100B34009C2D3030F0007008F20022000C120D17CA
:100B4400000022000D13F101083071020318C12DB9
:100B5400721CAF2D22000C16B12D22000C120D17A1
:100B6400000022000D137236F0007008F20001300C
:100B7400F0007008F10708307102031CAA2D0C1252
:100B84000D17000022000D13080083312A2385313C
:100B940083311F23853183314F23853100308331E5
:100BA4001A23853122008C100C120C110D12C03046
:100BB40020000E05A600C0302606031DD92D0E0800
:100BC400A6002608A000C0300E05A6004030260668
:100BD400031DE52D0E083F39A6002608FD00C03090
:100BE4000E05A60080302606031DF12D0E083F39A0
:100BF400A6002608A100201E0D2E20080C3903197A
:100C04000D2E20080339813E840088300318013EEC
:100C1400850000080E2E003083311A2385313C30C4
:100C240020002005A60020302606031D1D2E2200CC
:100C34000C110D16462E2000200830390319432EBE
:100C440020080C390319432E22000D167D08413E5D
:100C5400840088300318013E85001200031D3D2ED8
:100C640020002108413E840088300318013E85009D
:100C740012000319402E22000C15462E22000C11DE
:100C8400462E22000C110D1205307D06031D5C2E2C
:100C940020002108031D5C2E3F30A6002608F50025
:100CA4003F30A7002708F6003F30A8002808F700C7
:100CB4003F30EB2F08307D06031D6B2E20002108EA
:100CC400031D6B2E4030A6002608F500F601F7013F
:100CD400722F0C307D06031D7D2E20002108031D7C
:100CE4007D2EF5010A30A6002608F6004030A70044
:100CF4002708F700EA2F0D307D06031D8F2E2000F4
:100D04002108031D8F2E1E30A6002608F5002D3065
:100D1400A7002708F6003730B42F14307D06031DD2
:100D2400A52E20002108031DA52E1530A600260897
:100D3400F5001530A7002708F6001530A80028088C
:100D4400F7001530EB2F1A307D06031DB52E200059
:100D54002108031DB52EF501F50AF601F60AF7017F
:100D6400F70A0130EB2F1D307D06031DCA2E20002B
:100D74002108031DCA2E0A30A6002608F5000F30EC
:100D8400A7002708F6001430A8002808F7001A2F37
:100D94007D03031DE02E083020002106031DE02EF4
:100DA4001230A6002608F5001530A7002708F60023
:100DB4002430A8002808F7000F30EB2F02307D06FE
:100DC400031DF32E053020002106031DF32E1430DD
:100DD400A6002608F5001430A7002708F6001430F2
:100DE400862F02307D06031D082F0C3020002106BB
:100DF400031D082FF501F50A0F30A6002608F6009A
:100E04004030A7002708F7002E30EB2F02307D0674
:100E1400031D1C2F0D3020002106031D1C2F143030
:100E2400A6002608F5003730A7002708F600F701CA
:100E34000530EB2F02307D06031D332F1D302000BB
:100E44002106031D332F0930A6002608F5002330A0
:100E5400A7002708F6003C30A8002808F700073050
:100E6400EB2F03307D06031D462F1430200021068E
:100E7400031D462F3730A6002608F5002130A700B1
:100E84002708F6000B30E22F04307D06031D5D2F8A
:100E9400053020002106031D5D2F2230A600260800
:100EA400F5002D30A7002708F6003830A8002808E0
:100EB400F7001730EB2F04307D06031D742F0C3020
:100EC40020002106031D742F1430A6002608F50007
:100ED4001E30A7002708F6002830A8002808F700CD
:100EE4000A30EB2F04307D06031D8B2F0D302000BC
:100EF4002106031D8B2F1E30A6002608F50028307E
:100F0400A7002708F6003230A8002808F70014309C
:100F1400EB2F04307D06031DA22F1D302000210677
:100F2400031DA22F1530A6002608F5000A30A700DD
:100F34002708F6003730A8002808F7002030EB2FE8
:100F440005307D06031DB92F1E3020002106031D28
:100F5400B92F1830A6002608F5002430A70027086A
:100F6400F6003030A8002808F7000C30EB2F0730CB
:100F74007D06031DD02F143020002106031DD02F21
:100F84001230A6002608F5001B30A7002708F6003B
:100F94002430A8002808F7000930EB2F0C307D0618
:100FA400031DE72F1E3020002106031DE72F2C30E0
:100FB400A6002608F5002C30A7002708F6002C30E0
:100FC400A8002808F7002C30EB2FF501F601F701F3
:100FD400003083319123853122008C148431A12483
:100FE400853122008C10D92DFD01A001A101A2019F
:100FF400A301A401A50120008531C72D003480344C
:101004004034C0342034A0346034E034103490349C
:101014005034D0343034B0347034F034083488343C
:101024004834C8342834A8346834E834183498343C
:101034005834D8343834B8347834F83404348434F4
:101044004434C4342434A4346434E434143494343C
:101054005434D4343434B4347434F4340C348C34DC
:101064004C34CC342C34AC346C34EC341C349C34DC
:101074005C34DC343C34BC347C34FC34063400341E
:1010840000340034003400340134003400340134BA
:1010940000340034003401340134003400340034AA
:1010A400003400340034013400340034003400349B
:1010B400003401340034003401340034003400348A
:1010C400003400340034003400340034003400347C
:1010D400003400340034003400340034003400346C
:1010E400003400340034003400340034003400345C
:1010F40000340034003400340034003400342B3421
:0E1104004834563464340734103406340E3444
:020000040001F9
:06000E009C39FF3E9F3FFC
:00000001FF
