:08000000803102288731F62F40
:100B040022009801990108007830210099009A0187
:100B140098010800853186258531853195258531F3
:100B240085318225080022008C01093021008C00C7
:100B3400013023008C0022008D0121008D0123004F
:100B44008D0124008D0122008E01FF3021008E00D2
:100B540023008E0124008E01210095170800F40063
:100B6400F301710873020318080022008D17741C26
:100B7400BE2D22008D16C02D22008D12701CC52D95
:100B840022000D17C72D22000D13000022008D1323
:100B94007436F2007208F4007036F2007208F00045
:100BA4000130F2007208F307B32D7C080339031DEA
:100BB400DD2D3030EF2D03307C05F0007003031D74
:100BC400E52D1030EF2D03307C05F0000230700667
:100BD400031DEE2DB030EF2D9030F0007008F200C0
:100BE40022000C128C16000022008C12F101083035
:100BF40071020318142E721C022E22000C16042EED
:100C040022000C128C16000022008C127236F000A6
:100C14007008F2000130F0007008F107083071022A
:100C2400031CFD2D0C128C16000022008C120800EF
:100C340085318C258631853182258631853195250E
:100C4400863122008C100C128C120C110D12C03043
:100C540020000E05A500C0302506031D292E0E0810
:100C6400A5002508FC00C0300E05A500403025066F
:100C7400031D352E0E083F39A5002508FD00C030A0
:100C84000E05A50080302506031D412E0E083F39B0
:100C9400A5002508A0003C307C05A50020302506D1
:100CA400031D582E22000C110D16802E7C0830399D
:100CB40003197D2E7C080C3903197D2E22000D1694
:100CC4007D08823E840088300318013E85001200AE
:100CD400031D772E20002008823E840088300318EC
:100CE400013E8500120003197A2E22000C15802E75
:100CF40022000C11802E22000C110D127C080C39DC
:100D0400031D8F2E7D082000A5002508F50020086E
:100D1400A6002608F6002008B22E0C307C05200020
:100D2400A50004302506031DA12E4030A50025088A
:100D3400F5002008A6002608F6002008C12E0C3075
:100D44007C052000A50008302506031DB72E7D086C
:100D5400A5002508F5004030A6002608F60040301E
:100D6400A7002708F7007D08C52E40302000A50005
:100D74002508F5004030A6002608F6004030A700FC
:100D84002708F70040308631D026863122008C14A3
:100D94008531D725863122008C10292EFA00FB01DB
:100DA40002307B020318080022008D160D17000084
:100DB40022008D120D137B08C83E8400883003186E
:100DC400013E85000008F8007808F0000430F900BE
:100DD4007908F1007B08C83E840088300318013E7E
:100DE400850000088531B12586310230F800780885
:100DF400F0000330F9007908F10002308531B125A3
:100E04008631C6308400883085000008F8007808F0
:100E1400F0000530F9007908F100C630840088300C
:100E2400850000088531B12586317B08031D202FFC
:100E3400F001F00AF101F10A0130242FF001F1016F
:100E4400F10A00308531B1258631F0010830F8000F
:100E54007808F10000308531B1258631F001F00ABF
:100E64000230F8007808F10001308531B12586316F
:100E74000000000022008D160D17000022008D12C4
:100E84000D137B08C83E840088300318013E85009A
:100E94000008F8007808F0000430F9007908F1003F
:100EA4007B08C83E840088300318013E8500000892
:100EB4008531B12586310230F8007808F00003301E
:100EC400F9007908F10002308531B1258631C73047
:100ED4008400883085000008F8007808F0000530A8
:100EE400F9007908F100C7308400883085000008D3
:100EF4008531B12586317B08031D862FF001F00A68
:100F0400F101F10A01308A2FF001F101F10A0030F8
:100F14008531B12586317B08031DBB2F7608003E41
:100F2400840088300318013E85000008F800780822
:100F3400F0000830F9007908F1007A08003E8400D6
:100F440088300318013E850000088531B1258631BB
:100F54007608413E840088300318013E850000086D
:100F6400F8007808F0000230F9007908F1007A08F6
:100F7400E52F7708003E840088300318013E850081
:100F84000008F8007808F0000830F9007908F1004A
:100F94007508003E840088300318013E850000086F
:100FA4008531B12586317708413E840088300318A5
:100FB400013E85000008F8007808F0000230F900CE
:100FC4007908F1007508413E840088300318013E19
:100FD400850000088531B12586310000000001300C
:100FE400F8007808FB07D22EFC01FD01A001A10145
:100FF400A201A301A401200086311A2E00348034FA
:101004004034C0342034A0346034E034103490349C
:101014005034D0343034B0347034F034083488343C
:101024004834C8342834A8346834E834183498343C
:101034005834D8343834B8347834F83404348434F4
:101044004434C4342434A4346434E434143494343C
:101054005434D4343434B4347434F4340C348C34DC
:101064004C34CC342C34AC346C34EC341C349C34DC
:101074005C34DC343C34BC347C34FC34063401341D
:1010840000340034013400340134013400340034B9
:1010940001340134003401340034003401340034A8
:1010A4000134013400340134003400340134013497
:1010B4000034003401340034013401340034003489
:1010C4000134013400340134003400340134013477
:1010D4000034003401340034013401340034013468
:1010E4000034003401340034013401340034003459
:1010F4000134013400340134003400340134013447
:10110400003400340034003400340134003400343A
:101114000134003400340034013401340034003428
:10112400003400340034003401340034003400341A
:101134000034003401340034003401340034003409
:1011440000340034003400340034003400340034FB
:1011540000340034003400340034003400340034EB
:1011640000340034003400340034003400340034DB
:1011740000340034003400340034003400340034CB
:101184002B344834563464340734103406340E3463
:020000040001F9
:06000E009C39FF3F9F3FFB
:00000001FF
